{"abi":[{"type":"constructor","inputs":[{"name":"_owner","type":"address","internalType":"address"},{"name":"_aidRegistry","type":"address","internalType":"address"}],"stateMutability":"nonpayable"},{"type":"function","name":"activeKeysOf","inputs":[{"name":"aid","type":"uint256","internalType":"uint256"}],"outputs":[{"name":"","type":"bytes32[]","internalType":"bytes32[]"}],"stateMutability":"view"},{"type":"function","name":"add","inputs":[{"name":"key","type":"bytes","internalType":"bytes"},{"name":"keyType","type":"uint8","internalType":"enum KeyRegistry.KeyType"}],"outputs":[],"stateMutability":"nonpayable"},{"type":"function","name":"addFor","inputs":[{"name":"aid","type":"uint256","internalType":"uint256"},{"name":"key","type":"bytes","internalType":"bytes"},{"name":"keyType","type":"uint8","internalType":"enum KeyRegistry.KeyType"},{"name":"deadline","type":"uint256","internalType":"uint256"},{"name":"signature","type":"bytes","internalType":"bytes"}],"outputs":[],"stateMutability":"nonpayable"},{"type":"function","name":"aidRegistry","inputs":[],"outputs":[{"name":"","type":"address","internalType":"contract IAIDRegistry"}],"stateMutability":"view"},{"type":"function","name":"isValidKey","inputs":[{"name":"aid","type":"uint256","internalType":"uint256"},{"name":"key","type":"bytes","internalType":"bytes"}],"outputs":[{"name":"","type":"bool","internalType":"bool"}],"stateMutability":"view"},{"type":"function","name":"keyCount","inputs":[{"name":"","type":"uint256","internalType":"uint256"}],"outputs":[{"name":"","type":"uint256","internalType":"uint256"}],"stateMutability":"view"},{"type":"function","name":"keyDataOf","inputs":[{"name":"aid","type":"uint256","internalType":"uint256"},{"name":"keyHash","type":"bytes32","internalType":"bytes32"}],"outputs":[{"name":"state","type":"uint8","internalType":"enum KeyRegistry.KeyState"},{"name":"keyType","type":"uint8","internalType":"enum KeyRegistry.KeyType"},{"name":"addedAt","type":"uint256","internalType":"uint256"},{"name":"removedAt","type":"uint256","internalType":"uint256"}],"stateMutability":"view"},{"type":"function","name":"keyHashes","inputs":[{"name":"","type":"uint256","internalType":"uint256"},{"name":"","type":"uint256","internalType":"uint256"}],"outputs":[{"name":"","type":"bytes32","internalType":"bytes32"}],"stateMutability":"view"},{"type":"function","name":"keyStateOf","inputs":[{"name":"aid","type":"uint256","internalType":"uint256"},{"name":"key","type":"bytes","internalType":"bytes"}],"outputs":[{"name":"","type":"uint8","internalType":"enum KeyRegistry.KeyState"}],"stateMutability":"view"},{"type":"function","name":"keys","inputs":[{"name":"","type":"uint256","internalType":"uint256"},{"name":"","type":"bytes32","internalType":"bytes32"}],"outputs":[{"name":"state","type":"uint8","internalType":"enum KeyRegistry.KeyState"},{"name":"keyType","type":"uint8","internalType":"enum KeyRegistry.KeyType"},{"name":"addedAt","type":"uint256","internalType":"uint256"},{"name":"removedAt","type":"uint256","internalType":"uint256"}],"stateMutability":"view"},{"type":"function","name":"maxKeysPerAid","inputs":[],"outputs":[{"name":"","type":"uint256","internalType":"uint256"}],"stateMutability":"view"},{"type":"function","name":"owner","inputs":[],"outputs":[{"name":"","type":"address","internalType":"address"}],"stateMutability":"view"},{"type":"function","name":"pause","inputs":[],"outputs":[],"stateMutability":"nonpayable"},{"type":"function","name":"paused","inputs":[],"outputs":[{"name":"","type":"bool","internalType":"bool"}],"stateMutability":"view"},{"type":"function","name":"remove","inputs":[{"name":"key","type":"bytes","internalType":"bytes"}],"outputs":[],"stateMutability":"nonpayable"},{"type":"function","name":"renounceOwnership","inputs":[],"outputs":[],"stateMutability":"nonpayable"},{"type":"function","name":"setMaxKeysPerAid","inputs":[{"name":"_max","type":"uint256","internalType":"uint256"}],"outputs":[],"stateMutability":"nonpayable"},{"type":"function","name":"transferOwnership","inputs":[{"name":"newOwner","type":"address","internalType":"address"}],"outputs":[],"stateMutability":"nonpayable"},{"type":"function","name":"unpause","inputs":[],"outputs":[],"stateMutability":"nonpayable"},{"type":"event","name":"Add","inputs":[{"name":"aid","type":"uint256","indexed":true,"internalType":"uint256"},{"name":"keyHash","type":"bytes32","indexed":true,"internalType":"bytes32"},{"name":"key","type":"bytes","indexed":false,"internalType":"bytes"},{"name":"keyType","type":"uint8","indexed":false,"internalType":"enum KeyRegistry.KeyType"},{"name":"addedBy","type":"address","indexed":false,"internalType":"address"}],"anonymous":false},{"type":"event","name":"OwnershipTransferred","inputs":[{"name":"previousOwner","type":"address","indexed":true,"internalType":"address"},{"name":"newOwner","type":"address","indexed":true,"internalType":"address"}],"anonymous":false},{"type":"event","name":"Paused","inputs":[{"name":"account","type":"address","indexed":false,"internalType":"address"}],"anonymous":false},{"type":"event","name":"Remove","inputs":[{"name":"aid","type":"uint256","indexed":true,"internalType":"uint256"},{"name":"keyHash","type":"bytes32","indexed":true,"internalType":"bytes32"},{"name":"removedBy","type":"address","indexed":false,"internalType":"address"}],"anonymous":false},{"type":"event","name":"Unpaused","inputs":[{"name":"account","type":"address","indexed":false,"internalType":"address"}],"anonymous":false},{"type":"error","name":"EnforcedPause","inputs":[]},{"type":"error","name":"ExceedsMaxKeys","inputs":[]},{"type":"error","name":"ExpectedPause","inputs":[]},{"type":"error","name":"InvalidKey","inputs":[]},{"type":"error","name":"KeyExists","inputs":[]},{"type":"error","name":"KeyNotFound","inputs":[]},{"type":"error","name":"OwnableInvalidOwner","inputs":[{"name":"owner","type":"address","internalType":"address"}]},{"type":"error","name":"OwnableUnauthorizedAccount","inputs":[{"name":"account","type":"address","internalType":"address"}]},{"type":"error","name":"Unauthorized","inputs":[]}],"bytecode":{"object":"0x60a0604052600a600155348015610014575f80fd5b506040516200134838038062001348833981016040819052610035916100e9565b816001600160a01b03811661006357604051631e4fbdf760e01b81525f600482015260240160405180910390fd5b61006c8161007f565b506001600160a01b03166080525061011a565b5f80546001600160a01b038381166001600160a01b0319831681178455604051919092169283917f8be0079c531659141344cd1fd0a4f28419497f9722a3daafe3b4186f6b6457e09190a35050565b80516001600160a01b03811681146100e4575f80fd5b919050565b5f80604083850312156100fa575f80fd5b610103836100ce565b9150610111602084016100ce565b90509250929050565b608051611200620001485f395f81816101a10152818161035a0152818161043101526105b801526112005ff3fe608060405234801561000f575f80fd5b506004361061011c575f3560e01c80638da5cb5b116100a9578063c85430da1161006e578063c85430da146102a1578063ce1c769e146102c0578063edac3011146102d3578063f08fd8c014610315578063f2fde38b14610328575f80fd5b80638da5cb5b146101eb5780639955c30b146101fb578063a26ea0611461021b578063c26d71601461023b578063c26f74851461028e575f80fd5b80635c975abb116100ef5780635c975abb146101635780635ef5dfcf14610185578063612c29e81461019c578063715018a6146101db5780638456cb59146101e3575f80fd5b8063081d7bc5146101205780633f4ba83a14610135578063550ea96d1461013d57806358edef4c14610150575b5f80fd5b61013361012e366004610dce565b61033b565b005b6101336103ff565b61013361014b366004610e1e565b610411565b61013361015e366004610eae565b610599565b5f54600160a01b900460ff165b60405190151581526020015b60405180910390f35b61018e60015481565b60405190815260200161017c565b6101c37f000000000000000000000000000000000000000000000000000000000000000081565b6040516001600160a01b03909116815260200161017c565b610133610724565b610133610735565b5f546001600160a01b03166101c3565b61020e610209366004610eed565b610745565b60405161017c9190610f5d565b61022e610229366004610f71565b610788565b60405161017c9190610f88565b61027e610249366004610fcb565b600260208181525f9384526040808520909152918352912080546001820154919092015460ff80841693610100900416919084565b60405161017c9493929190610ffb565b61013361029c366004610f71565b6108bb565b61018e6102af366004610f71565b60036020525f908152604090205481565b61018e6102ce366004610fcb565b6108c8565b61027e6102e1366004610fcb565b5f918252600260208181526040808520938552929052912080546001820154919092015460ff808416946101009094041692565b610170610323366004610eed565b6108f3565b61013361033636600461103c565b61094c565b61034361098e565b60405163663f9aed60e11b81523360048201525f907f00000000000000000000000000000000000000000000000000000000000000006001600160a01b03169063cc7f35da90602401602060405180830381865afa1580156103a7573d5f803e3d5ffd5b505050506040513d601f19601f820116820180604052508101906103cb919061105e565b9050805f036103ec576040516282b42960e81b815260040160405180910390fd5b6103f981858585336109b8565b50505050565b610407610b60565b61040f610b8c565b565b61041961098e565b6040516365269e4760e01b8152600481018890525f907f00000000000000000000000000000000000000000000000000000000000000006001600160a01b0316906365269e4790602401602060405180830381865afa15801561047e573d5f803e3d5ffd5b505050506040513d601f19601f820116820180604052508101906104a29190611075565b90505f8888888888306040516020016104c096959493929190611090565b60408051601f198184030181529082905280516020918201207f19457468657265756d205369676e6564204d6573736167653a0a33320000000091830191909152603c820152605c016040516020818303038152906040528051906020012090505f61052d828686610be0565b9050826001600160a01b0316816001600160a01b031614610560576040516282b42960e81b815260040160405180910390fd5b85421115610580576040516282b42960e81b815260040160405180910390fd5b61058d8a8a8a8a336109b8565b50505050505050505050565b6105a161098e565b60405163663f9aed60e11b81523360048201525f907f00000000000000000000000000000000000000000000000000000000000000006001600160a01b03169063cc7f35da90602401602060405180830381865afa158015610605573d5f803e3d5ffd5b505050506040513d601f19601f82011682018060405250810190610629919061105e565b9050805f0361064a576040516282b42960e81b815260040160405180910390fd5b5f838360405161065b9291906110e9565b60408051918290039091205f848152600260209081528382208383529052919091209091506001815460ff16600281111561069857610698610f35565b146106b6576040516317cfd1e760e21b815260040160405180910390fd5b805460ff19166002908117825542908201555f8381526003602052604081208054916106e18361110c565b9091555050604051338152829084907f19e5cb7a5bd7a42eca0300600072474819b4c661b745356538dcef81b9d07d989060200160405180910390a35050505050565b61072c610b60565b61040f5f610cbc565b61073d610b60565b61040f610d0b565b5f838152600260205260408082209051829061076490869086906110e9565b604080519182900390912082526020820192909252015f205460ff16949350505050565b5f81815260046020908152604080832060039092528220546060928167ffffffffffffffff8111156107bc576107bc611121565b6040519080825280602002602001820160405280156107e5578160200160208202803683370190505b5090505f805b8454811080156107fa57508382105b156108b0575f87815260026020526040812086546001929088908590811061082457610824611135565b5f918252602080832090910154835282019290925260400190205460ff16600281111561085357610853610f35565b0361089e5784818154811061086a5761086a611135565b905f5260205f20015483838061087f90611149565b94508151811061089157610891611135565b6020026020010181815250505b806108a881611149565b9150506107eb565b509095945050505050565b6108c3610b60565b600155565b6004602052815f5260405f2081815481106108e1575f80fd5b905f5260205f20015f91509150505481565b5f60015f85815260026020526040808220905190919061091690879087906110e9565b604080519182900390912082526020820192909252015f205460ff16600281111561094357610943610f35565b14949350505050565b610954610b60565b6001600160a01b03811661098257604051631e4fbdf760e01b81525f60048201526024015b60405180910390fd5b61098b81610cbc565b50565b5f54600160a01b900460ff161561040f5760405163d93c066560e01b815260040160405180910390fd5b602083146109d957604051630eda9c3d60e31b815260040160405180910390fd5b6001545f8681526003602052604090205410610a085760405163d4591dd160e01b815260040160405180910390fd5b5f8484604051610a199291906110e9565b60408051918290039091205f888152600260209081528382208383529052919091209091506001815460ff166002811115610a5657610a56610f35565b03610a745760405163adb8cab560e01b815260040160405180910390fd5b8054600190829060ff19168280021790555080548490829061ff001916610100836001811115610aa657610aa6610f35565b02179055504260018083018290555f60028085018290558a8252602090815260408083208784529091529020015403610afa575f878152600460209081526040822080546001810182559083529120018290555b5f878152600360205260408120805491610b1383611149565b919050555081877f6b270b29c54476486c8f8598beb34fab9ca5659e6ce4108c50226eef8072003b88888888604051610b4f9493929190611161565b60405180910390a350505050505050565b5f546001600160a01b0316331461040f5760405163118cdaa760e01b8152336004820152602401610979565b610b94610d4d565b5f805460ff60a01b191690557f5db9ee0a495bf2e6ff9c91a7834c1ba4fdd244a5e8aa4e537bd38aeae4b073aa335b6040516001600160a01b03909116815260200160405180910390a1565b5f60418214610c315760405162461bcd60e51b815260206004820152601860248201527f496e76616c6964207369676e6174757265206c656e67746800000000000000006044820152606401610979565b8235602084013560408501355f1a601b811015610c5657610c53601b826111b1565b90505b604080515f81526020810180835289905260ff831691810191909152606081018490526080810183905260019060a0016020604051602081039080840390855afa158015610ca6573d5f803e3d5ffd5b5050604051601f19015198975050505050505050565b5f80546001600160a01b038381166001600160a01b0319831681178455604051919092169283917f8be0079c531659141344cd1fd0a4f28419497f9722a3daafe3b4186f6b6457e09190a35050565b610d1361098e565b5f805460ff60a01b1916600160a01b1790557f62e78cea01bee320cd4e420270b5ea74000d11b0c9f74754ebdbfc544b05a258610bc33390565b5f54600160a01b900460ff1661040f57604051638dfc202b60e01b815260040160405180910390fd5b5f8083601f840112610d86575f80fd5b50813567ffffffffffffffff811115610d9d575f80fd5b602083019150836020828501011115610db4575f80fd5b9250929050565b803560028110610dc9575f80fd5b919050565b5f805f60408486031215610de0575f80fd5b833567ffffffffffffffff811115610df6575f80fd5b610e0286828701610d76565b9094509250610e15905060208501610dbb565b90509250925092565b5f805f805f805f60a0888a031215610e34575f80fd5b87359650602088013567ffffffffffffffff80821115610e52575f80fd5b610e5e8b838c01610d76565b9098509650869150610e7260408b01610dbb565b955060608a0135945060808a0135915080821115610e8e575f80fd5b50610e9b8a828b01610d76565b989b979a50959850939692959293505050565b5f8060208385031215610ebf575f80fd5b823567ffffffffffffffff811115610ed5575f80fd5b610ee185828601610d76565b90969095509350505050565b5f805f60408486031215610eff575f80fd5b83359250602084013567ffffffffffffffff811115610f1c575f80fd5b610f2886828701610d76565b9497909650939450505050565b634e487b7160e01b5f52602160045260245ffd5b60038110610f5957610f59610f35565b9052565b60208101610f6b8284610f49565b92915050565b5f60208284031215610f81575f80fd5b5035919050565b602080825282518282018190525f9190848201906040850190845b81811015610fbf57835183529284019291840191600101610fa3565b50909695505050505050565b5f8060408385031215610fdc575f80fd5b50508035926020909101359150565b60028110610f5957610f59610f35565b608081016110098287610f49565b6110166020830186610feb565b60408201939093526060015292915050565b6001600160a01b038116811461098b575f80fd5b5f6020828403121561104c575f80fd5b813561105781611028565b9392505050565b5f6020828403121561106e575f80fd5b5051919050565b5f60208284031215611085575f80fd5b815161105781611028565b868152848660208301375f858201602081015f8152600287106110b5576110b5610f35565b60f89690961b9095525050602183019190915260601b6bffffffffffffffffffffffff191660418201526055019392505050565b818382375f9101908152919050565b634e487b7160e01b5f52601160045260245ffd5b5f8161111a5761111a6110f8565b505f190190565b634e487b7160e01b5f52604160045260245ffd5b634e487b7160e01b5f52603260045260245ffd5b5f6001820161115a5761115a6110f8565b5060010190565b60608152836060820152838560808301375f608085830101525f6080601f19601f87011683010190506111976020830185610feb565b6001600160a01b0392909216604091909101529392505050565b60ff8181168382160190811115610f6b57610f6b6110f856fea264697066735822122044de3e3a985a6ff54d75ada3cd27a7d00bc67a656ae45bac48684ade57717c0664736f6c63430008150033","linkReferences":{}},"methodIdentifiers":{"activeKeysOf(uint256)":"a26ea061","add(bytes,uint8)":"081d7bc5","addFor(uint256,bytes,uint8,uint256,bytes)":"550ea96d","aidRegistry()":"612c29e8","isValidKey(uint256,bytes)":"f08fd8c0","keyCount(uint256)":"c85430da","keyDataOf(uint256,bytes32)":"edac3011","keyHashes(uint256,uint256)":"ce1c769e","keyStateOf(uint256,bytes)":"9955c30b","keys(uint256,bytes32)":"c26d7160","maxKeysPerAid()":"5ef5dfcf","owner()":"8da5cb5b","pause()":"8456cb59","paused()":"5c975abb","remove(bytes)":"58edef4c","renounceOwnership()":"715018a6","setMaxKeysPerAid(uint256)":"c26f7485","transferOwnership(address)":"f2fde38b","unpause()":"3f4ba83a"},"id":25}