{"abi":[{"type":"constructor","inputs":[{"name":"_owner","type":"address","internalType":"address"},{"name":"_treasury","type":"address","internalType":"address"},{"name":"_registrationFee","type":"uint256","internalType":"uint256"}],"stateMutability":"nonpayable"},{"type":"function","name":"aidCounter","inputs":[],"outputs":[{"name":"","type":"uint256","internalType":"uint256"}],"stateMutability":"view"},{"type":"function","name":"aidOf","inputs":[{"name":"","type":"address","internalType":"address"}],"outputs":[{"name":"","type":"uint256","internalType":"uint256"}],"stateMutability":"view"},{"type":"function","name":"cancelRecovery","inputs":[],"outputs":[],"stateMutability":"nonpayable"},{"type":"function","name":"changeRecovery","inputs":[{"name":"recovery","type":"address","internalType":"address"}],"outputs":[],"stateMutability":"nonpayable"},{"type":"function","name":"completeRecovery","inputs":[{"name":"aid","type":"uint256","internalType":"uint256"}],"outputs":[],"stateMutability":"nonpayable"},{"type":"function","name":"custodyOf","inputs":[{"name":"","type":"uint256","internalType":"uint256"}],"outputs":[{"name":"","type":"address","internalType":"address"}],"stateMutability":"view"},{"type":"function","name":"hasId","inputs":[{"name":"owner","type":"address","internalType":"address"}],"outputs":[{"name":"","type":"bool","internalType":"bool"}],"stateMutability":"view"},{"type":"function","name":"owner","inputs":[],"outputs":[{"name":"","type":"address","internalType":"address"}],"stateMutability":"view"},{"type":"function","name":"pause","inputs":[],"outputs":[],"stateMutability":"nonpayable"},{"type":"function","name":"paused","inputs":[],"outputs":[{"name":"","type":"bool","internalType":"bool"}],"stateMutability":"view"},{"type":"function","name":"recoveryDeadlineOf","inputs":[{"name":"","type":"uint256","internalType":"uint256"}],"outputs":[{"name":"","type":"uint256","internalType":"uint256"}],"stateMutability":"view"},{"type":"function","name":"recoveryDestinationOf","inputs":[{"name":"","type":"uint256","internalType":"uint256"}],"outputs":[{"name":"","type":"address","internalType":"address"}],"stateMutability":"view"},{"type":"function","name":"recoveryOf","inputs":[{"name":"","type":"uint256","internalType":"uint256"}],"outputs":[{"name":"","type":"address","internalType":"address"}],"stateMutability":"view"},{"type":"function","name":"recoveryPeriod","inputs":[],"outputs":[{"name":"","type":"uint256","internalType":"uint256"}],"stateMutability":"view"},{"type":"function","name":"recoveryStatus","inputs":[{"name":"aid","type":"uint256","internalType":"uint256"}],"outputs":[{"name":"inRecovery","type":"bool","internalType":"bool"},{"name":"destination","type":"address","internalType":"address"},{"name":"deadline","type":"uint256","internalType":"uint256"}],"stateMutability":"view"},{"type":"function","name":"register","inputs":[{"name":"recovery","type":"address","internalType":"address"}],"outputs":[{"name":"aid","type":"uint256","internalType":"uint256"}],"stateMutability":"payable"},{"type":"function","name":"registerFor","inputs":[{"name":"to","type":"address","internalType":"address"},{"name":"recovery","type":"address","internalType":"address"}],"outputs":[{"name":"aid","type":"uint256","internalType":"uint256"}],"stateMutability":"payable"},{"type":"function","name":"registrationFee","inputs":[],"outputs":[{"name":"","type":"uint256","internalType":"uint256"}],"stateMutability":"view"},{"type":"function","name":"renounceOwnership","inputs":[],"outputs":[],"stateMutability":"nonpayable"},{"type":"function","name":"requestRecovery","inputs":[{"name":"aid","type":"uint256","internalType":"uint256"},{"name":"to","type":"address","internalType":"address"}],"outputs":[],"stateMutability":"nonpayable"},{"type":"function","name":"setRecoveryPeriod","inputs":[{"name":"_period","type":"uint256","internalType":"uint256"}],"outputs":[],"stateMutability":"nonpayable"},{"type":"function","name":"setRegistrationFee","inputs":[{"name":"_fee","type":"uint256","internalType":"uint256"}],"outputs":[],"stateMutability":"nonpayable"},{"type":"function","name":"setTreasury","inputs":[{"name":"_treasury","type":"address","internalType":"address"}],"outputs":[],"stateMutability":"nonpayable"},{"type":"function","name":"transfer","inputs":[{"name":"to","type":"address","internalType":"address"}],"outputs":[],"stateMutability":"nonpayable"},{"type":"function","name":"transferOwnership","inputs":[{"name":"newOwner","type":"address","internalType":"address"}],"outputs":[],"stateMutability":"nonpayable"},{"type":"function","name":"treasury","inputs":[],"outputs":[{"name":"","type":"address","internalType":"address"}],"stateMutability":"view"},{"type":"function","name":"unpause","inputs":[],"outputs":[],"stateMutability":"nonpayable"},{"type":"event","name":"CancelRecovery","inputs":[{"name":"by","type":"address","indexed":true,"internalType":"address"},{"name":"aid","type":"uint256","indexed":true,"internalType":"uint256"}],"anonymous":false},{"type":"event","name":"ChangeRecovery","inputs":[{"name":"aid","type":"uint256","indexed":true,"internalType":"uint256"},{"name":"recovery","type":"address","indexed":true,"internalType":"address"}],"anonymous":false},{"type":"event","name":"OwnershipTransferred","inputs":[{"name":"previousOwner","type":"address","indexed":true,"internalType":"address"},{"name":"newOwner","type":"address","indexed":true,"internalType":"address"}],"anonymous":false},{"type":"event","name":"Paused","inputs":[{"name":"account","type":"address","indexed":false,"internalType":"address"}],"anonymous":false},{"type":"event","name":"Recover","inputs":[{"name":"from","type":"address","indexed":true,"internalType":"address"},{"name":"to","type":"address","indexed":true,"internalType":"address"},{"name":"aid","type":"uint256","indexed":true,"internalType":"uint256"}],"anonymous":false},{"type":"event","name":"Register","inputs":[{"name":"to","type":"address","indexed":true,"internalType":"address"},{"name":"aid","type":"uint256","indexed":true,"internalType":"uint256"},{"name":"recovery","type":"address","indexed":false,"internalType":"address"}],"anonymous":false},{"type":"event","name":"RequestRecovery","inputs":[{"name":"from","type":"address","indexed":true,"internalType":"address"},{"name":"to","type":"address","indexed":true,"internalType":"address"},{"name":"aid","type":"uint256","indexed":true,"internalType":"uint256"}],"anonymous":false},{"type":"event","name":"Transfer","inputs":[{"name":"from","type":"address","indexed":true,"internalType":"address"},{"name":"to","type":"address","indexed":true,"internalType":"address"},{"name":"aid","type":"uint256","indexed":true,"internalType":"uint256"}],"anonymous":false},{"type":"event","name":"Unpaused","inputs":[{"name":"account","type":"address","indexed":false,"internalType":"address"}],"anonymous":false},{"type":"error","name":"EnforcedPause","inputs":[]},{"type":"error","name":"Escrow","inputs":[]},{"type":"error","name":"ExpectedPause","inputs":[]},{"type":"error","name":"HasId","inputs":[]},{"type":"error","name":"HasNoId","inputs":[]},{"type":"error","name":"InvalidRecovery","inputs":[]},{"type":"error","name":"OwnableInvalidOwner","inputs":[{"name":"owner","type":"address","internalType":"address"}]},{"type":"error","name":"OwnableUnauthorizedAccount","inputs":[{"name":"account","type":"address","internalType":"address"}]},{"type":"error","name":"Unauthorized","inputs":[]}],"bytecode":{"object":"0x60806040526203f480600755348015610016575f80fd5b5060405161109238038061109283398101604081905261003591610101565b826001600160a01b03811661006357604051631e4fbdf760e01b81525f600482015260240160405180910390fd5b61006c81610097565b50600980546001600160a01b0319166001600160a01b0393909316929092179091556008555061013a565b5f80546001600160a01b038381166001600160a01b0319831681178455604051919092169283917f8be0079c531659141344cd1fd0a4f28419497f9722a3daafe3b4186f6b6457e09190a35050565b80516001600160a01b03811681146100fc575f80fd5b919050565b5f805f60608486031215610113575f80fd5b61011c846100e6565b925061012a602085016100e6565b9150604084015190509250925092565b610f4b806101475f395ff3fe608060405260043610610195575f3560e01c8063715018a6116100e7578063c320c72711610087578063cc7f35da11610062578063cc7f35da146104ce578063f0f44260146104f9578063f2fde38b14610518578063fa1a1b2514610537575f80fd5b8063c320c72714610468578063c509c12b14610487578063cb17e04a1461049a575f80fd5b8063891b4ebc116100c2578063891b4ebc146103e25780638da5cb5b146103f75780639f25937414610413578063b0d6acf514610449575f80fd5b8063715018a61461039b5780638456cb59146103af57806385fb8449146103c3575f80fd5b80631a695230116101525780635c975abb1161012d5780635c975abb146102e857806361d027b3146103115780636473b35e1461034857806365269e4714610367575f80fd5b80631a695230146102a25780633f4ba83a146102c15780634420e486146102d5575f80fd5b8063055e4828146101995780630ba234d6146101d757806311e93460146101ed57806314a85ea21461020c57806314c44e091461027857806316c3e22f1461028d575b5f80fd5b3480156101a4575f80fd5b506101c46101b3366004610e3e565b60066020525f908152604090205481565b6040519081526020015b60405180910390f35b3480156101e2575f80fd5b506101eb61056b565b005b3480156101f8575f80fd5b506101eb610207366004610e6b565b610624565b348015610217575f80fd5b50610253610226366004610e3e565b5f90815260066020908152604080832054600590925290912054811515926001600160a01b039091169190565b6040805193151584526001600160a01b039092166020840152908201526060016101ce565b348015610283575f80fd5b506101c460085481565b348015610298575f80fd5b506101c460075481565b3480156102ad575f80fd5b506101eb6102bc366004610e6b565b6106db565b3480156102cc575f80fd5b506101eb610784565b6101c46102e3366004610e6b565b610796565b3480156102f3575f80fd5b505f54600160a01b900460ff165b60405190151581526020016101ce565b34801561031c575f80fd5b50600954610330906001600160a01b031681565b6040516001600160a01b0390911681526020016101ce565b348015610353575f80fd5b506101eb610362366004610e84565b6107b1565b348015610372575f80fd5b50610330610381366004610e3e565b60026020525f90815260409020546001600160a01b031681565b3480156103a6575f80fd5b506101eb6108ae565b3480156103ba575f80fd5b506101eb6108bf565b3480156103ce575f80fd5b506101eb6103dd366004610e3e565b6108cf565b3480156103ed575f80fd5b506101c460015481565b348015610402575f80fd5b505f546001600160a01b0316610330565b34801561041e575f80fd5b5061030161042d366004610e6b565b6001600160a01b03165f90815260036020526040902054151590565b348015610454575f80fd5b506101eb610463366004610e3e565b6109f8565b348015610473575f80fd5b506101eb610482366004610e3e565b610a05565b6101c4610495366004610eae565b610a12565b3480156104a5575f80fd5b506103306104b4366004610e3e565b60056020525f90815260409020546001600160a01b031681565b3480156104d9575f80fd5b506101c46104e8366004610e6b565b60036020525f908152604090205481565b348015610504575f80fd5b506101eb610513366004610e6b565b610a2e565b348015610523575f80fd5b506101eb610532366004610e6b565b610a58565b348015610542575f80fd5b50610330610551366004610e3e565b60046020525f90815260409020546001600160a01b031681565b610573610a9a565b335f90815260036020526040812054908190036105a357604051631085a59360e11b815260040160405180910390fd5b5f8181526006602052604081205490036105cf576040516282b42960e81b815260040160405180910390fd5b5f81815260056020908152604080832080546001600160a01b0319169055600690915280822082905551829133917f6181d4215ebc71e962cc193554c17f05a825da06230fdf9ece45081f09cb206f9190a350565b61062c610a9a565b335f908152600360205260408120549081900361065c57604051631085a59360e11b815260040160405180910390fd5b6001600160a01b0382166106835760405163f7eb744d60e01b815260040160405180910390fd5b5f8181526004602052604080822080546001600160a01b0319166001600160a01b0386169081179091559051909183917f1646891e9216ab5ba1d800cb3313bd748245319f4bc5c5b95d4094d15a9be3579190a35050565b6106e3610a9a565b335f908152600360205260408120549081900361071357604051631085a59360e11b815260040160405180910390fd5b6001600160a01b0382165f90815260036020526040902054156107495760405163f90230a960e01b815260040160405180910390fd5b5f81815260066020526040902054156107755760405163117b03fb60e11b815260040160405180910390fd5b610780813384610ac4565b5050565b61078c610b36565b610794610b62565b565b5f61079f610a9a565b6107a93383610bb6565b90505b919050565b6107b9610a9a565b5f828152600460205260409020546001600160a01b031633146107ee576040516282b42960e81b815260040160405180910390fd5b6001600160a01b0381165f90815260036020526040902054156108245760405163f90230a960e01b815260040160405180910390fd5b5f82815260056020526040902080546001600160a01b0319166001600160a01b0383161790556007546108579042610eea565b5f838152600660209081526040808320939093556002905281812054915184926001600160a01b03808616939116917ffab80e8bf242ed27bf595552dfdddbdd794f201d6dfcd8df7347f82f8e1f1f9b9190a45050565b6108b6610b36565b6107945f610d84565b6108c7610b36565b610794610dd3565b6108d7610a9a565b5f818152600460205260409020546001600160a01b0316331461090c576040516282b42960e81b815260040160405180910390fd5b5f818152600660205260408120549003610938576040516282b42960e81b815260040160405180910390fd5b5f818152600660205260409020544210156109665760405163117b03fb60e11b815260040160405180910390fd5b5f818152600260209081526040808320546005835281842080546001600160a01b031981169091556006909352908320929092556001600160a01b0391821691166109b2838383610ac4565b82816001600160a01b0316836001600160a01b03167ff6891c84a6c6af32a6d052172a8acc4c631b1d5057ffa2bc1da268b6938ea2da60405160405180910390a4505050565b610a00610b36565b600755565b610a0d610b36565b600855565b5f610a1b610a9a565b610a258383610bb6565b90505b92915050565b610a36610b36565b600980546001600160a01b0319166001600160a01b0392909216919091179055565b610a60610b36565b6001600160a01b038116610a8e57604051631e4fbdf760e01b81525f60048201526024015b60405180910390fd5b610a9781610d84565b50565b5f54600160a01b900460ff16156107945760405163d93c066560e01b815260040160405180910390fd5b5f83815260026020908152604080832080546001600160a01b0319166001600160a01b0386811691821790925580855260039093528184208790558516808452818420849055905186937fddf252ad1be2c89b69c2b068fc378daa952ba7f163c4a11628f55a4df523b3ef91a4505050565b5f546001600160a01b031633146107945760405163118cdaa760e01b8152336004820152602401610a85565b610b6a610e15565b5f805460ff60a01b191690557f5db9ee0a495bf2e6ff9c91a7834c1ba4fdd244a5e8aa4e537bd38aeae4b073aa335b6040516001600160a01b03909116815260200160405180910390a1565b6001600160a01b0382165f9081526003602052604081205415610bec5760405163f90230a960e01b815260040160405180910390fd5b6001600160a01b038216610c135760405163f7eb744d60e01b815260040160405180910390fd5b600854341015610c35576040516282b42960e81b815260040160405180910390fd5b60015f8154610c4390610efd565b91829055505f81815260026020908152604080832080546001600160a01b03199081166001600160a01b038a811691821790935585526003845282852086905585855260049093529220805490911691851691909117905590503415610d3b576009546040515f916001600160a01b03169034908381818185875af1925050503d805f8114610ced576040519150601f19603f3d011682016040523d82523d5f602084013e610cf2565b606091505b5050905080610d395760405162461bcd60e51b8152602060048201526013602482015272119959481d1c985b9cd9995c8819985a5b1959606a1b6044820152606401610a85565b505b6040516001600160a01b0383811682528291908516907ff2e19a901b0748d8b08e428d0468896a039ac751ec4fec49b44b7b9c28097e459060200160405180910390a392915050565b5f80546001600160a01b038381166001600160a01b0319831681178455604051919092169283917f8be0079c531659141344cd1fd0a4f28419497f9722a3daafe3b4186f6b6457e09190a35050565b610ddb610a9a565b5f805460ff60a01b1916600160a01b1790557f62e78cea01bee320cd4e420270b5ea74000d11b0c9f74754ebdbfc544b05a258610b993390565b5f54600160a01b900460ff1661079457604051638dfc202b60e01b815260040160405180910390fd5b5f60208284031215610e4e575f80fd5b5035919050565b80356001600160a01b03811681146107ac575f80fd5b5f60208284031215610e7b575f80fd5b610a2582610e55565b5f8060408385031215610e95575f80fd5b82359150610ea560208401610e55565b90509250929050565b5f8060408385031215610ebf575f80fd5b610ec883610e55565b9150610ea560208401610e55565b634e487b7160e01b5f52601160045260245ffd5b80820180821115610a2857610a28610ed6565b5f60018201610f0e57610f0e610ed6565b506001019056fea2646970667358221220c6e895aa6e41da8115315e106674fe94dd5d35cd8c4e0425174a30fc8aeb87d564736f6c63430008150033","linkReferences":{}},"methodIdentifiers":{"aidCounter()":"891b4ebc","aidOf(address)":"cc7f35da","cancelRecovery()":"0ba234d6","changeRecovery(address)":"11e93460","completeRecovery(uint256)":"85fb8449","custodyOf(uint256)":"65269e47","hasId(address)":"9f259374","owner()":"8da5cb5b","pause()":"8456cb59","paused()":"5c975abb","recoveryDeadlineOf(uint256)":"055e4828","recoveryDestinationOf(uint256)":"cb17e04a","recoveryOf(uint256)":"fa1a1b25","recoveryPeriod()":"16c3e22f","recoveryStatus(uint256)":"14a85ea2","register(address)":"4420e486","registerFor(address,address)":"c509c12b","registrationFee()":"14c44e09","renounceOwnership()":"715018a6","requestRecovery(uint256,address)":"6473b35e","setRecoveryPeriod(uint256)":"b0d6acf5","setRegistrationFee(uint256)":"c320c727","setTreasury(address)":"f0f44260","transfer(address)":"1a695230","transferOwnership(address)":"f2fde38b","treasury()":"61d027b3","unpause()":"3f4ba83a"},"id":24}